:020000040800F2
:1000000000070020291200087B2C0008FD110008C1
:10001000FD110008FD110008FD110008000000009E
:10002000000000000000000000000000290F000890
:10003000FD11000800000000D50E0008491B000853
:10004000D90F0008D90F0008D90F0008D90F0008F0
:10005000D90F0008D90F0008D90F0008D90F0008E0
:10006000D90F0008D90F0008D90F0008D90F0008D0
:10007000D90F0008D90F0008D90F0008D90F0008C0
:10008000D90F0008D90F0008D90F0008D90F0008B0
:10009000D90F0008D90F0008D90F0008D90F0008A0
:1000A000D90F0008D90F0008D90F0008D90F000890
:1000B000D90F0008D90F0008D90F0008D90F000880
:1000C000D90F0008D90F0008D90F0008D90F000870
:1000D000D90F0008D90F0008D90F0008D90F000860
:1000E000D90F0008D90F0008D90F0008D90F000850
:1000F000D90F0008D90F0008D90F0008D90F000840
:10010000D90F0008D90F0008D90F0008D90F00082F
:10011000D90F0008D90F0008D90F0008D90F00081F
:10012000D90F0008D90F0008D90F0008D90F00080F
:10013000D90F0008D90F0008D90F0008D90F0008FF
:10014000D90F0008D90F0008D90F0008D90F0008EF
:10015000D90F0008D90F0008D90F0008D90F0008DF
:10016000D90F0008D90F0008D90F0008D90F0008CF
:10017000D90F0008D90F0008D90F0008D90F0008BF
:10018000D90F0008D90F0008D90F0008D90F0008AF
:08019000D90F0008D90F000887
:1001980053B94AB9002908BF00281CBF4FF0FF31E6
:1001A8004FF0FF3000F00CB8ADF1080C6DE904CE4B
:1001B80000F008F8DDF804E0DDE9022304B0704738
:1001C800704700BF2DE9F04F07468C460846099E48
:1001D80015463C461946002B40F0C6808242B2FACA
:1001E80082F746D94FB1C7F1200E24FA0EFE00FA65
:1001F80007F3BD404EEA030CBC404FEA15481FFA0E
:1002080085FEBCFBF8F9220C08FB19C309FB0EFAA2
:1002180042EA03439A4528D9EB1809F1FF3004D282
:100228009A4502D9A9F102002B44A3EB0A03A4B210
:10023800B3FBF8F208FB123302FB0EFE44EA034458
:10024800A64514D92C1902F1FF3303D2A64501D9CA
:10025800931E2C44A4EB0E0443EA00401EB1FC405C
:10026800002334607360BDE8F08F4846DDE713462D
:10027800F0E702B9FFDE87BB831A01214FEA154E6A
:10028800AAB2B3FBFEFC200C0EFB1C330CFB02F8DD
:1002980040EA0343984563D9EB180CF1FF3004D2C8
:1002A800984502D9ACF102002B44A3EB0803A4B291
:1002B800B3FBFEFC0EFB1C330CFB02F244EA0344C6
:1002C800A2424FD92C190CF1FF3304D2A24202D911
:1002D800ACF102032C44A41ABEE7C7F1200C20FAA3
:1002E8000CF800FA07F324FA0CFCBD404CEA0302B0
:1002F8004FEA154EABB2B8FBFEFC110C0EFB1C808E
:100308000CFB03F941EA0040814504FA07F423D9BC
:1003180028180CF1FF3104D2814502D9ACF1020151
:100328002844A0EB090092B2B0FBFEFC0EFB1C00B7
:100338000CFB03F842EA004398450FD9EB180CF17F
:10034800FF3204D2984502D9ACF102022B44A3EB48
:10035800080342EA014191E76146E2E76246F6E7AF
:100368006046A2E76346B6E7834205D90EB1C6E9FF
:1003780000700021084676E7B3FA83F181B9834219
:1003880001D3BA420AD8BC1A60EB030301209C4689
:10039800002E68D0C6E9004C002164E70846F7E75C
:1003A800C1F1200C8B4022FA0CF41C4302FA01F52F
:1003B80000FA01F327FA0CF220FA0CFB4FEA144971
:1003C8001343BBFBF9F81FFA84FE09FB18BB1A0C90
:1003D80008FB0EFA42EA0B42924507FA01F73ED9AA
:1003E800A21808F1FF3004D2924502D9A8F1020000
:1003F8002244A2EB0A029BB2B2FBF9F809FB1822CD
:1004080008FB0EFE43EA024296452AD9A21808F1D3
:10041800FF3304D2964502D9A8F10203224443EAE5
:100428000040A0FB0593A2EB0E029A42CE469846E6
:1004380002D306D14F4504D2B9EB050E63EB04088D
:10044800013886B1B7EB0E0362EB080707FA0CFC1C
:10045800CB404CEA0303CF40C6E900379CE740464F
:10046800C7E74346DBE73146FDE60000F0B51D4E21
:1004780087B004460F2002F0E2FA0FCE6D460FC592
:1004880096E80300012785E803006E46002556F824
:10049800041B2269A0681368C9B207FA01FC23EAA1
:1004A8000C031360013503684FF420622046984717
:1004B800192DECD12021204602F0DEFA0A2002F0A4
:1004C800BEFA2821204602F031FB0A2002F0B7FAD2
:1004D80020460C2102F02AFB0A2007B0BDE8F040B4
:1004E80002F0ADBA20390008F8B51A4801F012FD3B
:1004F8000446184801F00EFD054602698168136834
:1005080023F4004313600B684FF4C0620F2198472F
:100518002046FFF7ABFF284601220F2102F07FFAA1
:1005280000250121204602F001FBEAB20021204605
:1005380002F012FB084F002617F8011B204601366F
:1005480002F0FFFA072EF7D10A2002F078FA0135F7
:10055800E7E700BFFA3A0008003B00080B680133E0
:100568000B60014B1B68184700000020014B186006
:10057800704700BF0000002007B50B460021024667
:100588000191034801A900F005F803B05DF804FBE8
:10059800650500082DE9F04F91B08B460290924610
:1005A8001C4600259AF8000008B928465FE325286C
:1005B8000AF1010707D0029B594698470028C0F264
:1005C8005683013512E2182200210AA802F07FFBA7
:1005D8009AF80130252B78D000221046964694468A
:1005E8001646394617F8013B2B2B00F09D8000F288
:1005F8009480202B00F09B80232B00F09B802EB151
:100608009DF8306046F004068DF83060BCF1000FAC
:1006180005D09DF8306046F008068DF83060BEF1D0
:10062800000F05D09DF8306046F010068DF8306058
:1006380028B19DF8300040F020008DF830002AB134
:100648009DF8302042F040028DF830209DF830208F
:1006580002F04400442803D16FF386128DF830204D
:100668009DF830202A2B42F080028DF830207BD173
:100678009DF8312042F001024B1C8DF831201A7888
:100688002E2A9DF831200CBF0121002161F341027F
:100698008DF8312074D15A782A2A6AD00133002182
:1006A8000A26184610F8012BA2F13007092F40F24C
:1006B8008E809DF830200E91C2F3400040EAD1713F
:1006C80061F341028DF830205AE00AF102078DF8F3
:1006D80033309DF83130D90740F1498154F8049BF3
:1006E800B9F1000F07DA9DF8302042F004028DF8C6
:1006F8003020C9F100095A0740F1428154F8048BAF
:10070800B8F1000F80F241819DF831306FF3410359
:100718008DF831304FF0FF3837E12D2B0CD0302BCE
:100728007FF46DAF01225CE74FF0010C59E74FF001
:10073800010E56E7012054E7012652E70CFB02029E
:10074800303A33461E4616F8010BA0F13007092F40
:10075800F4D9994293D09DF830100D92D20F62F3DC
:1007680041018DF830108AE70B4600224FF00A0C41
:10077800E8E79DF8312042F004028DF83120023379
:100788001F4617F8012B6C2A41D025D8682A2BD090
:100798006A2A46D04C2A4CD01F4617F8012B9DF8E0
:1007A80031308DF83320782A00F2D980572A4DD875
:1007B800412A03D0453A022A00F2D1809DF832300E
:1007C800042262F302038DF8323001239EE006FB17
:1007D80001213039034664E7742A26D07A2ADBD10E
:1007E8009DF8313006220DE05A78682A9DF83120AC
:1007F80006D1012161F3C6028DF831209F1CCCE798
:100808001346022262F3C6038DF83130C5E75A78E1
:100818006C2A9DF8312001D10421EBE7134603220D
:10082800F0E79DF831300522ECE79DF831300722DA
:10083800E8E7BDF8303023F4F04323F0020343F433
:10084800804343F00203ADF83030A6E7A2F1580127
:10085800202900F2848001A050F821F0290900081D
:1008680067090008670900086709000867090008A0
:100878006709000867090008670900086709000890
:10088800C50700086709000829090008E9080008E1
:10089800C5070008C5070008C5070008670900085C
:1008A800E9080008670900086709000867090008DF
:1008B8006709000831090008290900084D090008DE
:1008C80067090008670900084D090008670900085A
:1008D80029090008670900086709000829090008AC
:1008E8009DF83210012003F0780360F30201402BD9
:1008F8008DF8321002BF9DF8301041F001018DF8DB
:100908003010632A31D1003B18BF01239DF83020F5
:10091800C2F340010B4363F341028DF83020D8E65F
:100928009DF832100220DEE79DF8322003F07803AC
:10093800A3F14000032161F3020243428DF8322003
:100948004341E3E79DF83220032113F0780F61F368
:1009580002028DF8322014BF01230023D6E79DF848
:10096800303043F001038DF830300023CEE79DF995
:100978003020002AB4BFDDF834904FF0FF39BAE6D2
:100988009B077FF5C7AEDDF838809DF8311000234E
:10099800CDE90D339DF8323003F00703012BC1F385
:1009A800C30138D1CB1E042B22D8DFE803F003099A
:1009B8000921210054F8043BDA17CDE90A3206E090
:1009C800073424F00704F4E80223CDE90A239DF84C
:1009D800303013F0030656D002983B46524659462B
:1009E80002F024F90028C0F242810544BA46D9E54C
:1009F80054F8043B01294FEAE372CDE90A3205D1E4
:100A08009DF828300A9300230B93E0E70229DED1F2
:100A1800BDF92830D0E7022B23D1CB1E042B13D8E5
:100A2800DFE803F0030A0A12120022680A92002380
:100A3800201D0B930446CAE7E01D20F00700F0E8EC
:100A48000223CDE90A23F5E754F8043B0A93012968
:100A58004FF000030B93D3D00229B8D1BDF828304A
:100A6800D0E7042B09D1E31D23F0070303F10804A1
:100A7800D3E90023CDE90A23A9E7032B04BF54F8DF
:100A8800043B0A93A3E79DF833007828AED8622880
:100A980022D825283FF48FAD5828A7D10DF1260379
:100AA8000093DDE90A0104AB0CAA02F079F882464A
:100AB800B8F1000F0DF126000CDB9DF83020A0EBFB
:100AC8000A036FF3861298458DF8302002D9A8EBF7
:100AD80003030D9380463DE06338152886D801A2AC
:100AE80052F820F06D0B0008D10B0008F50900083A
:100AF800F5090008F5090008F5090008D10B0008F8
:100B0800F5090008F5090008F5090008F5090008C5
:100B18002B0C0008F90B0008FD0B0008F50900086C
:100B2800F5090008450B0008F5090008F90B00084D
:100B3800F5090008F5090008F90B0008B8F1000FDD
:100B4800DDF828A00ADB4146504602F0A0F80AEB7F
:100B580000080026BAF1000F0CD147E7504602F012
:100B68008FF8F4E70A9B8DF8103000260DF1100A73
:100B78000DF11108A8EB0A0306B101339DF83220E4
:100B8800D00668D5023352060D9948BF0E9A0B4419
:100B980048BF9B18B9F1000F76DD9DF83020A9EB0E
:100BA8000309C2F38003039353076DD4500661D53C
:100BB80046B1029B594630469847002857DB039BAD
:100BC80001351E46302356E01E070FD413F01006D9
:100BD80018BF2026DDE90A23002BBFF65FAF52427B
:100BE80063EB4303CDE90A232D2657E72B26F1E7CC
:100BF800002653E70A9840B30DF1260300930CAA88
:100C080004AB002101F0CCFFBDF8323003F0EF0354
:100C180043F4F04343F010038246ADF83230002627
:100C280046E70A9B07293FF6E1AEDFE801F00C042E
:100C3800060C08080C0C1D70D8E61D80D6E6EA17CD
:100C4800C3E90052D2E61D60D0E6DFF8C8A0064628
:100C58000AF105088EE7110748BF013393E71846E4
:100C680003935946029B98470028039B04DA11B066
:100C7800BDE8F08F20234D444A46002AA5EB090120
:100C880009F1FF39EBDC0D4636B1029B5946304677
:100C980098470028EBDB01359DF83230D90601D49E
:100CA8001A0706D5029B5946302098470028DEDBF4
:100CB80001359DF83230DB0607D59DF83300029BDD
:100CC800594698470028D2DB01350D9E2E44731BE8
:100CD800002B16DC029843465246594601F0A6FFFF
:100CE8000028C4DB0544A944A9EB0503002B7FF7C2
:100CF8007DAE029B5946202098470028B7DB013576
:100D0800F2E7029B5946302098470028AFDB0135AF
:100D1800DDE700BF083B00080C4B1A6842F400727C
:100D28001A601A6842F480621A604FF01002EFF3FA
:100D3800118382F31288BFF36F8F83F31188BFF397
:100D48006F8F034B034A1A6000207047003C024033
:100D58002C0000200024F4002DE9F84F884679B3D0
:100D68000026DFF86890041D354654F8040C10F08E
:100D7800F00F5FFA80FB0ED1256845F02005C0F31F
:100D8800072AC0F303300A281DD859F820703FB944
:100D98006FF0120015E0BBF1100F08BF3025EEE729
:100DA800384602F090FA08340028F1D05B462A460B
:100DB8000AF00F013846013602F06CF84645D4D1E6
:100DC8000020BDE8F88F6FF01500FAE740390008F9
:100DD800014910220A60704710ED00E072B64040E9
:100DE80080F31188BFF36F8FBFF34F8F30BF62B6A8
:100DF800BFF36F8F704700BF43B2002B08DB01229F
:100E080000F01F0002FA00F05B09024A42F82300D2
:100E1800704700BF00E100E043B2002BA8BF03F118
:100E2800604301F10101B8BF064B4FEA0111ACBFA5
:100E380003F5614300F00F00C9B2B4BF195483F839
:100E48000013704714ED00E030BFFFF7FDBF00BF8F
:100E58000F4A08B50F4B22F07F029A60BFF34F8FFD
:100E6800BFF36F8FD3F8882022F47002C3F888206C
:100E7800EFF3148323F0040383F31488BFF36F8F15
:100E880001F0B8F801F06AFC00F0BEF901F0BCF816
:100E98000000000800ED00E0094A0A499368096863
:100EA8009967094958674B6843F080534B600023A2
:100EB80083F31188BFF36F8F9368986F704700BFF3
:100EC800C8020020F03A000800ED00E012498A68E4
:100ED8004FF030001044EFF3098C80E8F01F102029
:100EE80080F31288BFF36F8F0C4F4FF000668A694A
:100EF8008A603E60506F0023536780F3118804B501
:100F0800104600F0C1F9BDE8044002F1300090E855
:100F1800F01F8CF309887047C802002004ED00E038
:100F28001EF0040F0CBFEFF30880EFF3098081690E
:100F380011F8021C0229FFD001B501F092FE01BD93
:100F480042F8203C009B42F81C3C0A49019B42F8AD
:100F5800183C029B42F8143C21F001014FF08073C9
:100F680042F8043C42F8081C0023203A0265436713
:100F7800704700BF952B0008094A0346906870B176
:100F880013F1160F406E05D0A0F120029A4205D841
:100F9800834203D2814228BF002070470020704757
:100FA800C802002008B5094B98600D46144600F0A9
:100FB8006BF9204685F30988002163B681F311880F
:100FC800BFF36F8F0022002301F0E0FDC80200206C
:100FD80001B5EFF30580A0F110004FEAC000044905
:100FE800014409C99847BDE8014002490847000083
:100FF8001036000801100008044B99689869884267
:1010080003D003494FF080520A607047C80200209D
:1010180004ED00E038B5194B14469A6A9A6A9A6A40
:101028000546900719D5586B9A6A120615D519B155
:101038009A6A22F080029A629A6A9A6A9A6AD10631
:101048000ED49B6A9A070BD400200C4A936A43F08B
:10105800FF0393620023237038BD6FF01500EBE7A0
:10106800064B5B681B05EFD52946FFF785FF00286F
:10107800EAD080F309880220E7E700BF00ED00E02E
:101088000D4B9A6A9A6A9A6A920508D59A6B9A6A77
:10109800120404D518B19A6A22F400429A62064BE7
:1010A8009A6A9A6AD20558BF9A6A9A6A002042F4E4
:1010B8007F429A620870704700ED00E070B5484BB7
:1010C8005B688AB00D46C3F30803002686F31188CF
:1010D800BFF36F8F02F07F41B1F17F4F11D102F062
:1010E8000C0108290DD0110701D40546012600225C
:1010F800033B8DF80720032B6BD8DFE803F004557A
:10110800595D3546F3E7364BDC6A14F0020460D1CA
:10111800DA6A002A15DBDA6A520012D5AA6932F8AF
:10112800021C4DF6027291420AD093F828200AB3A5
:101138000DF1070201212846FFF76CFF044600E085
:101148002C689DF807309BB92022294602A801F097
:10115800B3FD099B002E3ED0C3F3080222B96FEA03
:1011680053236FEA4323099302A9204601F077FD30
:101178000AB070BD93F829202AB10DF107010120AA
:10118800FFF77EFFDAE75A8D92B2002AD9D09A6A21
:101198009A6A9A6A9A6A9A6A9A6A9A6A6FEA024292
:1011A8006FEA12429A62CCE70DF107020021C2E70A
:1011B8000DF107010020E3E7094B9A6A9A6A9A6AD7
:1011C8009A6A9A6A9A6A9A6A6FEA02426FEA1242BD
:1011D8009A620024B5E723F4FF7323F00103C2E702
:1011E80000ED00E0024A536943F010035361704771
:1011F80000ED00E0EFF30880EFF3098101B57246D6
:10120800FFF75CFF01BD00BF044800231021C2188E
:101218000133562B82F80013F9D1704700E100E042
:10122800102080F3118808484FF40261401880F3B9
:101238000988EFF314800221084380F31488BFF370
:101248006F8FFFF705FE000080080020064B9B68A3
:10125800834207D1EFF3058323B1044A536843F06F
:101268008053536001F028BAC802002000ED00E066
:10127800024B034A0348012100F06EB80000022027
:10128800000000206C390008426E054B203A1A60B5
:10129800044A2021C3E901121846012100F066B86A
:1012A8007001002000000B15F0B51F4F00268E427C
:1012B80001DB1046F0BD44689CB353B104F1FF3C18
:1012C80014EA0C0F18D11F2C16D905681CEA050F53
:1012D80012D1202C0568D0F808C0D2B20FD9B4F1C9
:1012E800004F0ED8013CB4FA84F4C4F11F04640022
:1012F800072A4CEA040406D96FF01502D9E7082436
:10130800F6E73E24F4E725F01F05154345F01005E0
:1013180044F00104C7F89820C7F89C500132C7F878
:10132800A04001360C30C2E700ED00E0044B052276
:10133800C3F89420BFF34F8FBFF36F8F704700BF80
:1013480000ED00E0BFF35F8F024B0022C3F894204A
:10135800704700BF00ED00E010B5034C0123227870
:10136800FFF7A2FF207010BDFC02002008B5094A53
:1013780000231278FFF798FF10F1160F02D0064AE3
:10138800072800DD08BDC2F89800C2F8A030013077
:10139800F6E700BFFC02002000ED00E014490868F1
:1013A800082810B521D8FFF7CDFF124C4968002254
:1013B800904201F10C0105D10F4B1870FFF7B6FFF1
:1013C800002010BDC4F8982051F80C3C23F01F03EE
:1013D800134343F01003C4F89C3051F8043C43F025
:1013E8000103C4F8A0300132E2E74FF0FF30E8E72C
:1013F8007839000800ED00E0FC020020014B18607D
:10140800704700BF040000202DE9F8430D4F044643
:101418000E4615464FF0010802F10409B44201DBFB
:10142800BDE8F8837A6908FA04F333EA020207D1BF
:101438007B6155F834301BB159F834102046984771
:101448000134EBE7003C0140044A01231168834062
:101458000B431360024B1856FFF7CEBC003C01400B
:101468003B3B00081F2807DC044901220B6802FAED
:1014780000F023EA00000860704700BF003C01400C
:1014880003290FD8DFE801F0020F1723154B0122BB
:10149800996802FA00F021EA00019960DA6822EA04
:1014A8000000D8607047012303FA00F00D4B9A68DA
:1014B80002439A60F2E7012303FA00F0094BDA6865
:1014C8000243DA609A6822EA0000986070470123B4
:1014D80003FA00F0034B9A6802439A60DA681043F3
:1014E800DFE700BF003C0140074B10B5044653F846
:1014F800300028B943F8341003EBC4035A6010BD18
:101508006FF00F00FBE700BF7C010020034B0022B7
:1015180043F8302003EBC0035A6070477C01002079
:101528000B6884B0032B2DD8DFE803F0020E1822D5
:10153800164A4B68116B19431163126B13400093E1
:10154800009B002004B07047104A4B68516B194348
:101558005163526B13400193019BF2E70B4A4B68AE
:10156800116C19431164126C13400293029BE8E753
:10157800064A4B68516C19435164526C13400393EB
:10158800039BDEE76FF08500DCE700BF0038024010
:101598000B68032B20D8DFE803F0020A1118104A61
:1015A8004968136B23EA01031363002070470C4A50
:1015B8004968536B23EA01035363F6E7084A49680D
:1015C800136C23EA01031364EFE7054A4968536C77
:1015D80023EA01035364E8E76FF08500704700BF12
:1015E80000380240084B09681B68062909D8DFE85B
:1015F80001F005050405080805005B0813600020D4
:1016080070476FF0850070472C00002030B587B018
:1016180000234FF48052CDE90032029300F038F8ED
:1016280003A801F0D1FB184B1A68910706D41A6871
:1016380042F001021A601A689207FCD5124CA3689E
:1016480023F00303A360A36823F0F003A360A56855
:1016580015F00C05FBD123680C4823F08073236038
:10166800636823F0706343F08063636003AA6B468A
:10167800294600F0E9FB236823F00103236001F009
:10168800AAFB284607B030BD0038024000127A0095
:10169800064B1A6C42F080521A641B6C82B003F03D
:1016A80080530193019B02B0704700BF003802408D
:1016B80008B5084B0848186001F005FE38B107481E
:1016C800FFF79CFE0548FEF751FF002008BD6FF0AC
:1016D8001200FBE734020020E0350008E916000894
:1016E8000A2838B5074D044604D1286883680D21B7
:1016F8005B68984728688368E1B25B68984720462A
:1017080038BD00BF3402002070B50546074C20469E
:1017180001F0D9FD30B1A368294620461B68BDE811
:10172800704018476FF0120070BD00BFF034000819
:10173800F7B50C461146B1F5005F476802691E46C9
:1017480023D104F0030304339A000F23934043EAA0
:101758009403DAB23349023251F82220190C02EA12
:10176800134391FAA1F2B2FA82F2D340BA689A42CC
:1017780009D12046FFF776FE2046FFF7C7FE002175
:101788002046FFF77DFE00253EE0B1F5804F42D0B0
:1017980025492046FFF7A8FE054600283ED1234AE2
:1017A800BF6892E803006B4683E803001846FFF71A
:1017B800ABFFC0B904F0030104318B000F2199403D
:1017C80041EA9401CAB2920002F1804202F59C32C9
:1017D8000B0C906893FAA3F3B3FA83F320EA114150
:1017E8009F400F439760B6F5802F10D0B6F5C02FF5
:1017F8000FD0B6F5003F14BF002102212046FFF7A5
:101808003FFE2046FFF720FE284603B0F0BD012129
:10181800F4E70321F2E76FF08505F5E76FF00F05B0
:10182800F2E700BF00380140772E00083839000879
:1018380070B544680C3421B12046BDE87040FFF70C
:1018480063BF074D284601F03EFD30B1AB68214625
:1018580028465B68BDE8704018476FF0120070BDFD
:10186800F034000843681B6803F1140252E8002FA3
:1018780042F0010203F1140040E800210029F3D1ED
:101888000D4A934207D0A2F54C42934203D002F589
:101898005042934203D11A6942F040021A6103F19F
:1018A8000C0252E8002F42F4807203F10C0040E869
:1018B80000210029F3D170470010014043681B68DC
:1018C80003F1140252E8002F22F0010203F1140080
:1018D80040E800210029F3D10D4A934207D0A2F530
:1018E8004C42934203D002F55042934203D11A6905
:1018F80022F040021A6103F10C0252E8002F22F490
:10190800807203F10C0040E800210029F3D17047F0
:10191800001001402DE9F84346680769DFF8B880F0
:10192800B146054659F80C4BC7F80480404601F00B
:10193800CAFC18B96FF00400BDE8F883D8F808307D
:1019480049461B68404698470028F3D16B68D6E99A
:1019580007011A68FFF700FA0028EDDBE36823F4B3
:101968000053E36004F10C0353E8003F43F00C0319
:1019780004F10C0141E80032002AF3D1B369022BCB
:1019880025D0012B0ABF4FF4805100214FF4C062CB
:10199800E3680A4323F4B0531343E360236923F451
:1019A80040532361337D2BB16B681A68536943F444
:1019B800407353613968284601F015FCE36843F425
:1019C8000053E3602846B36898470020B4E74FF413
:1019D80080514FF48062DBE7F03400082DE9F047CE
:1019E8000A79436806691C68012A0D467CD0022AD8
:1019F8000CBF4FF48061002195F8059095F806E03A
:101A0800B9F1020F96BF3D4B4FF4005833F81980D7
:101A1800BEF1040F6BD0002A0CBF00234FF4805393
:101A2800EF79A2F1030A012F14BF4FF0000C4FF415
:101A3800407CBAF1010F5DD912B1BEF1040F59D043
:101A480019F0FD0F56D0BEF1020F53D9BEF1040FA5
:101A580050D067B12A4A944207D0A2F54C4294422A
:101A680003D002F55042944244D1012F42D1E2689A
:101A780022F40052E260E26802F4C06291421FBFA1
:101A8800E76827F4C0670F43E760226902F4405211
:101A980090451FBF216921F4405141EA08012161A5
:101AA800E268296802F4805293421FBFE26822F478
:101AB80080521A43E260636903F440739C451FBF78
:101AC800636923F4407343EA0C0363613368994202
:101AD80003D001F088FB2B683360E36843F40053BC
:101AE800E3600020BDE8F0874FF4C06184E74FF45D
:101AF800805395E76FF08500F4E700BFF43A0008DB
:101B0800001001404FF0E02310B59A6919699869EF
:101B1800094B11F4803F094901D1824206D21A6863
:101B28000C6822441A604FF0E02212691B680A68A8
:101B38001344181A10BD00BFC4020020C0020020C0
:101B480008B5FFF7DFFF0C4B0C4A1868116808440A
:101B5800106000221A600A4A13684FF41651C01A1E
:101B6800B0FBF1F001FB0033136000F0D7FEBDE8D5
:101B78000840FFF741BA00BFC4020020BC020020A1
:101B8800B8020020094B102283F82320084B42F2A8
:101B98007F521A60074B002018604FF0E0235A610B
:101BA80098611A6942F007021A61704700ED00E077
:101BB800C0020020C4020020F8B5324D59B1431CC0
:101BC80009D14FF0E022136923F0010313614FF0AC
:101BD8007F432B60F8BD40F2D263B0F1FF3F08BFEE
:101BE8001846441E002C2F6832DD9C42A8BF1C46B4
:101BF8004FF01003EFF3118683F31288BFF36F8F52
:101C0800FFF780FF20494FF0E0230022D3F818C0E7
:101C18000B6818441D4B08601A601D4B1B68C21ADC
:101C280018D54FF480632B604FF0E0222C6893693D
:101C38009C4538BFBC44013CACEB030C5461604488
:101C480000249461086086F31188BFF36F8FC1E7A1
:101C58000024CDE74FF4165E0EFB042404F515545A
:101C68001B1A3F34B4FBFEF40EFB0434B4F5806F4A
:101C780004D9084B9C42D6D82C60D5E74FF4806431
:101C8800FAE700BFC0020020BC020020C402002006
:101C9800B802002000C3FF0010B54FF01003EFF3A7
:101CA800118483F31288BFF36F8FFFF72BFF074B65
:101CB800074A1B6812689B1A034484F31188BFF310
:101CC8006F8F4FF41650B3FBF0F010BDBC0200202C
:101CD800B8020020054B1A681B6802F0007203F076
:101CE8000063134314BF01200020704700380240EE
:101CF800002849D02A4A136803F44043B3F5404FFB
:101D080017D1284B984245D903232749884202D93D
:101D1800012B38BF0123126802F44042B2F5004F8C
:101D28000ED1224A904208D9CBB1012B38BF0123EA
:101D380006E00023EFE70223EDE71B4A9042F4D8C0
:101D4800174A126802F44042B2F5804F0CD1174A84
:101D5800904206D9D3B1012B38BF012304E00223F6
:101D6800EEE7114A9042F6D811490A6822F00702B4
:101D78001A430A600A6802F00702934208D00A6808
:101D880002F00702934203D0012070470223EBE7D9
:101D980000207047054B9842CDD80023B5E700BF17
:101DA80000700040804A5D0580C3C9010090D003DF
:101DB800003C02400B68214AC3F3031370B5D35C9F
:101DC8001F4E20FA03F43368A3420D4627D31D4B58
:101DD8001A6842F080721A601A689201FCD59A68F3
:101DE800296822F0F0020A439A609A6822F00302F6
:101DF80042F002029A60134B9A6802F00C02082A19
:101E0800FAD19A68696822F4E0520A439A609A689B
:101E1800A96822F460420A439A60002004E0204640
:101E2800FFF766FF0028D2D03368A34202D92046C4
:101E3800FFF75EFF00B9346070BD00BF9A3B000831
:101E48002C00002000380240F8B50E46054614461E
:101E58001946FFF73FFF002836D12768D4F804C099
:101E6800A3681A4C07F03F00B5FBF0F5CCF3080067
:101E780045432268180C01304000B5FBF0F095038B
:101E88000FD42268012E0CBF42F4802222F4802253
:101E98002260256845F4803525600C4C2268920341
:101EA800FCD50A4C0A4A65682A4042EA8C123A4331
:101EB80042F480026260626822F440321A4362602F
:101EC800BDE8F840FFF776BF0120F8BD00380240B2
:101ED8000080BFFF0E4B70B553F82040013053F817
:101EE8002060A64200D870BDD4E90035284698473E
:101EF80065B1EB6830B10028B8BF4042FF28A8BFE1
:101F0800FF2018705A7842F001025A700834E8E746
:101F1800DC3A000870B5054610B90024204670BDAB
:101F28000378002BF9D00E4C0E4EB44208D10C4C5D
:101F3800B442F2D0204601F0C6F950B91834F7E798
:101F4800204601F0C0F910B12368AB42E6D018343E
:101F5800EBE72168284600F0A3FE0028EED1DDE774
:101F6800F03400081036000830B5002387B001228D
:101F7800CDE904230F22CDE9023201930C4C0D4B1D
:101F88000D49182204EBC01402FB00334FF4B0755E
:101F9800009305FB0011094B4FF4A072204600F096
:101FA800A3F8637B23F00403637307B030BD00BF5D
:101FB80068000020C80200202007002031330008F4
:101FC80008B50A4B012202201A70FFF783FF00F0C0
:101FD80019FD0320FFF77EFF00F0B8F8FEF784FA3A
:101FE800034A137B23F00103137308BDFD0200208D
:101FF800E80000200248034A0021121A00F067BED8
:10200800680000200003002080B5DFF8BC80A6B07F
:1020180088F308882D4D2E4E6B69DFF8B89043F48D
:10202800007300246B61F02385F82230EC772C765E
:102038006C76AC7685F820406B6A43F4E0236B62DB
:10204800FFF7D0F8FEF7C4FE4FF0FF33AB62EB6248
:10205800FFF7A4F9FFF70CF940F20113ADF82430AB
:1020680006ABB360CDE91F4401F02CF92046FFF719
:1020780031FF0120184DFFF72DFF00F06BFA174BC9
:102088000593012316490094CDE903434FF4806278
:102098004B46CDE901442846B56100F025F86A7B36
:1020A800074622F0040228466A7301F077F92046B1
:1020B800FFF75AFF0B4BF3604A46394628463475FA
:1020C800C6F80480FEF76EFFA010002000ED00E0C7
:1020D800C8020020C91F0008E8000020AA3B000829
:1020E80000030020680000202DE9FF410E9E0673C2
:1020F800042646730D9E867300F158050F46D61DBB
:10210800C0E916550C9A002526F007062037C0E9C5
:102118000655C0E919768560C573C56606F12008BD
:1021280002920B9A019288440A9A00924246044607
:10213800FEF706FF044B65659B6803B11B6F2367B9
:10214800404604B0BDE8F081C8020020F0B5224C3A
:10215800224D87B02646AE4204F130040BD300F07E
:1021680091F81D4C1E4F0A26AC4220D307B0BDE89B
:10217800F04000F0D3B954F8043C059354F8103CEF
:10218800049354F8143C039354F8183C029354F8FD
:102198001C3C019354F8203C009354E90C0154E989
:1021A8000A23FFF7A1FF54F8303C5E65D2E7626A64
:1021B800531C09D022EAE27282FB062352EA030189
:1021C800206803D100F042F93034CDE739461830A1
:1021D80000F02AFBF8E700BF680000206800002034
:1021E800C533000810B5084C23685BB1FFF754FDF0
:1021F80003462068054A0344BDE8104013610021E6
:1022080001F014B910BD00BFF4020020C80200207C
:1022180010B54FF01003EFF3118483F31288BFF366
:102228006F8F0C4B00221A6190424FF00A030A4A42
:1022380000FB03F309DC1360084B1960FFF7D2FFBA
:1022480084F31188BFF36F8F10BD022BB8BF022330
:10225800F1E700BFC8020020F4020020F0020020CD
:1022680049B9EFF3058030B9054B9A699B689A42E2
:1022780001D0FEF711BE81F31188BFF36F8F70474D
:10228800C80200204FF01003EFF3118183F3128886
:10229800BFF36F8F044B9A68D37B013BD37381F3F1
:1022A8001188BFF36F8F7047C802002038B5024607
:1022B8000C480D4D01F06CF8044600B9EC68AB68A9
:1022C8004AB95A7BD20606D1A26922B9DA897F2A8D
:1022D80001D9AB6138BD9C4201D0FFF783FFAC61E7
:1022E800F8E700BFE4020020C802002070B590F9AA
:1022F8000D20437B002A014604DA03F07F03437371
:1023080001F01EF84B7B154A63F07F034B73D2E94B
:10231800073402F11C05AB421BD0D3B191F90E6012
:1023280093F90E0086420FD0801B00280CDD5868F8
:10233800C1E90030016059609068431A5842BDE80D
:1023480070405841FFF7B2BFA34202D01B68002B70
:10235800E6D1C1E9005421601162EDE7C80200200E
:1023680038B501464FF01003EFF3118483F3128858
:10237800BFF36F8F154B164A98681568A84206D1A7
:10238800FFF730FF84F31188BFF36F8F38BD002546
:102398001560104A1268BAB1C2897F2A14D8427BE4
:1023A800D20611D10C4A90F90E50126895420BDBF7
:1023B8000A4A904208D01A698A4202DCFFF796FF5F
:1023C800DEE7521A1A61DDE70022FBE7C8020020A7
:1023D800EC020020F4020020F00200206800002037
:1023E80070B490F90D20437B002A2ADBDA0628D145
:1023F800826932BB144A63F07F034373D2E907341E
:1024080002F11C05AB4217D0B3B190F90E6093F9F5
:102418000E108E420BD0891B002908DD5A68C0E9CE
:1024280000321060586070BC0020FFF73FBFA34225
:1024380002D01B68002BEAD1C0E90054206010626A
:10244800F1E770BC704700BFC802002010B54FF01C
:102458001002EFF3118482F31288BFF36F8F427B6F
:10246800510704D484F31188BFF36F8F10BD22F095
:1024780004024273FFF7B4FF21460248BDE810404A
:10248800FFF7EEBEFE02002008B590F90D20437B51
:10249800002A014604DA03F07F03437300F050FF7B
:1024A800044B9868431A58425841BDE80840FFF762
:1024B800FDBE00BFC802002070B50446183000F009
:1024C8009FFF4FF01003EFF3118683F31288BFF3D9
:1024D8006F8F94F90D20637B002A05DA03F07F03E0
:1024E8006373204600F02CFF0B4D637BA86843F014
:1024F80010036373031B58425841FFF7D7FE86F356
:102508001188BFF36F8FAB68A34203D1BDE8704059
:1025180000F034BF70BD00BFC802002010B54FF0F6
:102528001003EFF3118483F31288BFF36F8F084B06
:102538009A68D37B0133D3730020FFF7B7FE84F387
:102548001188BFF36F8FBDE8104000F017BF00BFC0
:10255800C8020020044B002103F11C02C3E9072232
:102568000846FFF755BE00BFC8020020F8B54FF077
:102578001003EFF3118583F31288BFF36F8F1A49A5
:102588008868437B03F07F03437300F0D9FE8B68B0
:102598005A7B084662F07F025A7350F81C2F824219
:1025A8001CD0DAB10F6A93F90E6092F90E40A64278
:1025B8000FD0A41B002C0CDD5168C3E900210B606F
:1025C80053600120FFF772FE2846BDE8F840FEF789
:1025D80063BCBA4202D01268002AE6D10A6AC3E98B
:1025E800000213600B62ECE7C802002050EA010306
:1025F8002DE9F04105460E4603D1FFF7B7FF00204D
:1026080033E06FF00104241A4FF0FF3363EB01034A
:10261800012C73F1000302DA00F022FF44194FF095
:102628001003EFF3118883F31288BFF36F8F104FF5
:10263800104BB8681860FFF727FFB8680E492A469C
:102648003346183000F0F0F8BA68537B43F01003B3
:1026580053734046FEF720FC00F002FF201A63EB9C
:102668000303012873F10003C9DBBDE8F08100BF53
:10267800C8020020EC020020C5330008B1F1FF3F7A
:1026880008BFB0F1FF3F08B506D1074B9868FFF7C0
:1026980013FF4FF0FF3008BDFFF7A8FF0A22002301
:1026A800C117FDF775FDF6E7C8020020014B9868D1
:1026B800704700BFC80200202DE9F04104464FF0E2
:1026C8001003EFF3118683F31288BFF36F8F437BF8
:1026D8001A0705D586F31188BFF36F8FBDE8F0811F
:1026E80023F0200242F00801D20920D14173A368E7
:1026F80013B1204600F02CFE04F1180000F080FE13
:1027080004F158074FF00008A56DBD4200D0B5B9D7
:102718000120FFF7CBFD104B9B68A342DAD1EFF302
:102728000583002BD6D13046FEF7B6FBD2E703F07F
:102738005F0343F00803437300F002FED7E728461F
:1027480000F006FE05F1180000F05AFEC5F8788082
:102758002846FFF745FED7E7C802002008B5064817
:10276800064A0749121A00F0A7FABDE80840054AC8
:102778000549064800F0A0BA0000002068000020C3
:10278800F43B000800000000F43B000800000020B3
:10279800034B1B680BB9FFF77FBA0020704700BFD7
:1027A800F8020020114B10B51C689C4208BF002499
:1027B800FFF7EEFF03466CB1D4E90402C01A62EBDE
:1027C800E373012873F100020DDBB0F1004F73F1E0
:1027D800000301DB6FF00040054B1B6913B1984201
:1027E800A8BF184610BD0020F6E700BF3000002043
:1027F800C802002030B5036868B10A4A526890429E
:1028080009D043B1D3E90421D0E90445121941EBB9
:102818000501C3E90421426813605A600023C0E936
:10282800003330BD30000020B3F1FF3F08BFB2F1E4
:10283800FF3FF8B504461F46154667D081604FF044
:102848001003EFF3118683F31288BFF36F8F6FF0D5
:102858000102531B4FF0FF3C6CEB0703002B1BDB03
:102868002B4BD3E90013521A6CEB0303551B63EB94
:102878000703012D73F10002BCBF01250023C0E945
:1028880004532448D0E9003C834218D1C4E9000C21
:10289800CCF80040446026E0FFF77AFF013547F1A5
:1028A80000072D1847EBE077C4E90457E9E7521A07
:1028B80065EB07059C45C4E90425E7D01B68002B98
:1028C800E4D0D3E90417D4E904258A4275EB070E4E
:1028D800EDDA8A1A67EB0505C3E904255A68C4E9E5
:1028E800003214605C60036883420BD09C4209D1BB
:1028F800FFF758FF18B1084B1B69834202D000212B
:10290800FFF75AF986F31188BFF36F8FF8BD00BF40
:102918006801002030000020C80200202DE9F8439B
:102928000546FFF71DFD4FF01003EFF3118483F305
:102938001288BFF36F8F244EDFF890803560244DE6
:10294800D8F8000032684045D5E9001E4FEAE27722
:102958000BD050B1D0E9043C9A4277EB0C0916DA57
:102968009B1A6CEB070CC0E9043C52184EEB0707A6
:10297800C5E9002700253560FFF714FF2946FFF752
:102988001BF984F31188BFF36F8FBDE8F8835918DA
:102998004EEBE377D31A336000220023C0E9042307
:1029A800C5E90017FFF726FF84F31188BFF36F8F7F
:1029B800836898474FF01003EFF3118483F312886C
:1029C800BFF36F8FBCE700BFF80200203000002083
:1029D8006801002010B54FF01003EFF3118483F362
:1029E8001288BFF36F8FFFF757F9054AD2E9003114
:1029F800C01841F1000184F31188BFF36F8F10BD37
:102A080068010020024A0349034800F0B2B800BF39
:102A1800F03B0008AF3B0008CA3B000870470123A1
:102A280003FA01F103691B68194218BF82F0010219
:102A380012B18368DB68184783681B69FBE70A21C2
:102A480080FB0101FFF71ABE01220521FFF7E7BF4E
:102A580000220521FFF7E3BF10B501220421044637
:102A6800FFF7DDFF0120FFF7EAFF20460022BDE85F
:102A780010400421FFF7D3BF38B504460D46FFF7D1
:102A8800E7FFEA0920460021FFF7C9FFC5F38012D6
:102A980020460121FFF7C3FFC5F34012204602215B
:102AA800FFF7BDFF2046C5F300120321FFF7B7FF6C
:102AB8002046BDE83840FFF7CFBF38B5CA090446FD
:102AC8000D460021FFF7ABFFC5F380122046012118
:102AD800FFF7A5FFC5F3401220460221FFF79FFF2D
:102AE800C5F3001203212046FFF799FF2046FFF7A0
:102AF800B3FFC5F3C00220460021FFF790FFC5F3DE
:102B0800800220460121FFF78AFFC5F340022046D4
:102B18000221FFF784FF204605F001020321FFF799
:102B28007EFF2046BDE83840FFF796BF38B504461B
:102B38000D46FFF78DFF29462046BDE83840FFF7D0
:102B4800BCBF38B504460D46FFF77EFF2946204630
:102B5800BDE83840FFF7B1BF11B1012906D14021C6
:102B68000F2A03D81144C9B2FFF7E0BF704700200D
:102B780070470FB407B504A951F8040B0191FDF78C
:102B8800FBFC03B05DF804EB04B07047044608B5DD
:102B9800084611461A46A047FFF788FDFEF756FB80
:102BA8002DE9F84F9A46D3786F2B80460F46154685
:102BB800A3F1410B29D024D8582B14BF0A2610267C
:102BC800DDF828903246002340463946FDF7E0FA02
:102BD800092AD4B21ED83034B045E4B277F10003E4
:102BE80009F8014D01D3D14511D82B789B0605D59D
:102BF800082E15D1AB7843F00803AB704846BDE802
:102C0800F88F03F0F703702BD7E70826D8E780463C
:102C18000F46D7E7BBF1190F94BF37345734DBE7BA
:102C2800102EEBD1AB7843F01003E6E72DE9F04125
:102C38000746884615461E461446B442A4EB0500CE
:102C480002D33EB923782BB114F8010B4146B8479B
:102C58000028F2DABDE8F08170470020704700F0E4
:102C680048BB0146006800F044BB00210120FFF783
:102C7800F6BF08B5FEF7E8F8BDE80840FEF7BCB9AE
:102C8800034600201A5C02B970470130FAE7034690
:102C980000201A5C0AB1884200D170470130F8E779
:102CA800431E013913F8012F11F8010F824201D197
:102CB800002AF7D1101A704710B5431E0A449142F2
:102CC80000D110BD11F8014B03F8014FF7E7C9B265
:102CD80002440346934200D1704703F8011BF9E709
:102CE8004FF0FF307047002208B511460620FEF766
:102CF80093F8002211460720FEF78EF800221146AD
:102D08000820FEF789F8002211460920FEF784F80A
:102D1800002211460A20FEF77FF8002211461720EC
:102D2800FEF77AF8002211462820FEF775F80022EF
:102D380011460120FEF770F8002211462A20FEF7FE
:102D48006BF8002211460220FEF766F800221146B1
:102D58000320FEF761F8002008BD0269172116203C
:102D6800FEF752BB026916211520FEF74DBB02691A
:102D780013211220FEF748BB026911211020FEF72B
:102D880043BB026910210A20FEF73EBB02690A21F3
:102D98000520FEF739BB026905210420FEF734BB84
:102DA800026904210320FEF72FBB026903210220D8
:102DB800FEF72ABB026902210120FEF725BB026942
:102DC80001210020FEF720BB60230422C0E9002374
:102DD800002383607047704743685B681B690B601A
:102DE8000020704743685B68586942400A40424087
:102DF8005A610020704743685B68002099617047FA
:102E080043685B68090499610020704743685A6801
:102E180053694B405361002070470369986830B587
:102E280058B10024814212D10868DD6854B98D4236
:102E3800986000D1D860002008606AB9002030BDD1
:102E48002846EFE78D42206008BFDC60F3E705689D
:102E58000446002DF4D13AB1D8689A680A6099609E
:102E68000028EBD1D960EAE76FF01500E7E70B46D9
:102E7800896870B569B101255E680C6885408A6803
:102E88002A4002D04B683046984714B1214624683E
:102E9800F5E770BD4068F0B5446801206768884070
:102EA800C2F3801627EA00078E403E43666090FA18
:102EB800A0F7B7FA87F7D4F808C04FF0030E7F00E1
:102EC8000EFA07F72CEA070C90FAA0F7B7FA87F77B
:102ED800C2F3C1167F00BE4046EA0C06A66090FA0F
:102EE800A0F6B6FA86F6E76876000EFA06F627EA3E
:102EF800060790FAA0F6B6FA86F602F030057600D4
:102F0800C2F34122B2403A43202DE26015D107298D
:102F18002BDC90FAA0F2216A2AB3B2FA82F292006C
:102F28000F2606FA02F221EA020190FAA0F2B2FA9A
:102F380082F2920093400B43236290FAA0F3B3FA13
:102F480083F3226890FAA0F05B000321B0FA80F0C6
:102F58002D0901FA03F3400022EA030305FA00F001
:102F680018432060F0BD2A46D9E7020A666A92FA39
:102F7800A2F181B1B1FA81F189000F2792FAA2F288
:102F8800B2FA82F207FA01F1920026EA01019340AF
:102F98000B436362D1E72946EEE738B50D46910544
:102FA8000446134619D59A0710D5580730D550222C
:102FB800D9060DD542F4007219051ED4580515D549
:102FC8000121A9402046FFF71BFF0FE01022EFE781
:102FD8009806F1D542F48062EEE7D10513D5DA06FA
:102FE80013D413F0200218BF4FF480622046002348
:102FF8002946FFF74FFF002038BD61680123496863
:10300800AB408B61F2E73022F0E74FF40072EDE756
:103018006FF08500F0E7026901215060FEF708BCF7
:1030280082B003680193019B43680193019B02B03E
:10303800704708B54368186803681A0701D5FFF791
:10304800EFFF03689B0643BF43680B7000204FF0F7
:10305800FF3008BD43681B681A681206FCD5596022
:10306800704708B54368186802680368DB07036897
:10307800C2F3C00248BF42F00202990748BF42F0BB
:103088000402D30701D5FFF7CBFF910701D5FFF75E
:10309800C7FF530701D5FFF7C3FFFFF7C1FF10466E
:1030A80008BD436830B51C680023D8B2151A002D36
:1030B80004DD25682D0603F1010300D430BD085C4A
:1030C8006060F2E738B543681C680025E8B2131A57
:1030D800002B02DD23689B0600D438BD63680B54BF
:1030E8002368180702D52046FFF79AFF0135EDE758
:1030F80043681A6802F10C0353E8003F43F04003A9
:1031080002F10C0040E800310029F3D17047436810
:103118001A6802F10C0353E8003F23F0400302F160
:103128000C0040E800310029F3D1704743681B6860
:10313800186810F080001CBFD868C0F38010704772
:1031480043681B681868C0F38010704743681A68A2
:1031580002F10C0353E8003F43F0200302F10C0096
:1031680040E800310029F3D1704743681A6802F13A
:103178000C0353E8003F23F0200302F10C0040E861
:1031880000310029F3D1704743681B681868C0F301
:103198004010704743681B681A68910602D5DA68C0
:1031A800920607D4186810F0400004D0D868C0F31D
:1031B8008010704701207047012070470369C3E9F8
:1031C80002127047026993680BB1D16818477047BB
:1031D80008B5002226201146FDF71EFEBDE808406E
:1031E8002620FDF709BEF7B5036947685E6857F8FA
:1031F8000C4B0D46304600F066F808B3B368DB6840
:10320800F3B101AA394630469847002818DBE3682D
:10321800019823F400431921E360AA00AB0FA0FB37
:103228000101FCF7B5FF6422B0FBF2F102FB1103C8
:103238001B013233B3FBF2F303EB01139BB2A36020
:1032480003B0F0BD03691B680B6043681A68D36854
:1032580003F4C063B3F5806F29D0A3F5C06CDCF12B
:10326800000343EB0C030B71136903F44053B3F5EC
:10327800805F1ED0B3F5405F1DD0002B14BF032321
:1032880001234B71D068D368C00403F4C06314D51C
:10329800002B14BF032304238B71536903F4407379
:1032A800A3F5407253425341CB710020704702236B
:1032B800D9E70023E5E70223E3E7002B0CBF03234C
:1032C8000223E9E7704738B1C3681888C0F30800DB
:1032D800A0F580735842584170474FF01002EFF341
:1032E800118382F31288BFF36F8FFEE708B5FFF7EB
:1032F800F4FFF8B505460E464FF01003EFF31187BB
:1033080083F31288BFF36F8FFFF7D0F93146044675
:103318002846FFF7EBFF87F31188BFF36F8F20462E
:10332800BDE8F840FDF792BF08B54FF01002EFF383
:10333800118382F31288BFF36F8FFDF74FFDF4E717
:10334800D0E9003213605A600023C0E900337047A7
:1033580008B5FFF7F5FF437B23F00203437300230F
:10336800836008BD034620B9EFF305820AB9FDF76B
:1033780093BD83F31188BFF36F8F70474FF010032D
:10338800EFF3118083F31288BFF36F8FFFF7EABF63
:1033980003460068834208BF0020704710B54FF00D
:1033A8001003EFF3118483F31288BFF36F8FFFF7D5
:1033B80017F884F31188BFF36F8F10BD10B501465D
:1033C8004FF01003EFF3118483F31288BFF36F8F6C
:1033D80010F80B3C13F0280F0DD151F8103C183899
:1033E8000BB1FFF7B5FF11F80B3C23F0140301F8FC
:1033F8000B3CFEF7F5FF84F31188BFF36F8F10BD08
:1034080010B54FF01002EFF3118482F31288BFF366
:103418006F8F03683BB1FFF7EDF9002084F3118843
:10342800BFF36F8F10BD6FF01500F7E770B5044656
:103438000D464FF01003EFF3118683F31288BFF3A4
:103448006F8FFFF7AFF9012805DDA04203DB29469E
:103458002046FEF7B1FB86F31188BFF36F8F70BD6E
:0834680008B5FFF7B7FA08BD33
:083470005CCDFF7F01000000AC
:10347800210D000800000000632C00080000000077
:1034880015160008F03400081F3000080835000839
:103498001F300008203500081F30000838350008A4
:1034A8001F300008503500081F3000086835000834
:1034B8001F300008803500081F30000898350008C4
:1034C8001F300008B0350008EF2C0008C835000888
:1034D8001D190008E0350008B916000800000000B2
:0834E8008D1B0008F8350008F7
:1034F000523B000800000000080000203C000020B3
:1035000000000000183900085F3B0008243A00085A
:10351000383A000840000020A802002010390008B6
:10352000653B0008103A0008383A000844000020C3
:1035300098020020083900086B3B0008FC3900089D
:10354000383A0008480000208802002000390008AE
:10355000713B0008E8390008383A00084C000020A8
:1035600078020020F8380008FA3A0008D439000838
:10357000383A00085000002068020020F0380008A7
:10358000773B0008C0390008383A00085400002092
:1035900058020020E83800087D3B0008AC390008DC
:1035A000383A00085800002048020020E03800089F
:1035B000833B000898390008383A00085C00002076
:1035C00038020020D83800081D3B00080000000029
:1035D00000000000380000207C010020D2380008E4
:1035E000893B00086C3A0008903A0008600000200F
:1035F0001C000020C4380008903B000800000000B8
:10360000000000006400002000000000C038000836
:1036100000000000732C0008C8350008812D000848
:10362000C83500086D2D0008C8350008632D000856
:1036300000000000732C000800000000732C00083C
:10364000C8350008C72D0008C8350008BD2D000882
:10365000C8350008B32D0008C8350008A92D00089A
:10366000C83500089F2D000800000000732C0008DA
:1036700000000000732C000800000000732C0008FC
:1036800000000000732C000800000000732C0008EC
:1036900000000000732C000800000000732C0008DC
:1036A00000000000732C000800000000732C0008CC
:1036B00000000000732C000800000000732C0008BC
:1036C00000000000732C0008C8350008952D000884
:1036D00000000000732C000800000000732C00089C
:1036E00000000000732C000800000000732C00088C
:1036F00000000000732C000800000000732C00087C
:1037000000000000732C000800000000732C00086B
:1037100000000000732C000800000000732C00085B
:1037200000000000732C000800000000732C00084B
:1037300000000000732C000800000000732C00083B
:10374000E0350008CD31000800000000732C0008AF
:10375000C83500088B2D000800000000732C0008FD
:10376000C8350008772D000800000000732C000801
:1037700000000000732C000800000000732C0008FB
:1037800000000000732C000800000000732C0008EB
:1037900000000000732C000800000000732C0008DB
:1037A00000000000732C000800000000732C0008CB
:1037B00000000000732C000800000000732C0008BB
:1037C00000000000732C000800000000732C0008AB
:1037D00000000000732C000800000000732C00089B
:1037E00000000000732C000800000000732C00088B
:1037F00000000000732C000800000000732C00087B
:1038000000000000732C000800000000732C00086A
:1038100000000000732C000800000000732C00085A
:1038200000000000732C000800000000732C00084A
:1038300000000000732C000800000000732C00083A
:1038400000000000732C000800000000732C00082A
:1038500000000000732C000800000000732C00081A
:1038600000000000732C000800000000732C00080A
:1038700000000000732C000800000000732C0008FA
:1038800000000000732C000800000000732C0008EA
:1038900000000000732C000800000000732C0008DA
:1038A00000000000732C000800000000732C0008CA
:1038B00000000000732C000800000000732C0008BA
:1038C000FF7FFF7F0100FF7FFF7FFF7FFF7FFF7F85
:1038D000FF7FFF7FFF7FFF7F0100FF7FFF7FFF7F75
:1038E0000100FF7FFF7FFF7F0100FF7FFF7FFF7FE2
:1038F0000100FF7FFF7FFF7F0100FF7FFF7FFF7FD2
:103900000100FF7FFF7FFF7F0100FF7FFF7FFF7FC1
:103910000100FF7FFF7FFF7FFF7FFF7FFF7FFF7F34
:103920000000000001000000020000000300000091
:10393000040000000500000003000000004000003B
:10394000B035000898350008803500086835000853
:1039500050350008383500082035000808350008C3
:103960000000000000000000000000000000002037
:103970000000000000000B06020000008039000873
:10398000000000080E3B0008240002070000002091
:10399000163B000820000B11FFFF00000000024052
:1039A000000000000000000001000000FFFF000018
:1039B00000040240010000000000000002000000BE
:1039C000FFFF0000000802400200000000000000AD
:1039D00004000000FFFF0000000C02400300000094
:1039E0000000000008000000FFFF0000001002407F
:1039F000040000000000000010000000FFFF0000B5
:103A0000001402400500000000000000200000003B
:103A1000FFFF000000180240060000000000000048
:103A200040000000FFFF0000001C024007000000F3
:103A30000000000080000000A32F0008E12D000816
:103A4000ED2D0008FF2D0008092E0008152E000896
:103A500039170008232E00080000000007020000AC
:103A600000020000070300000000000000440040C6
:103A700000000000D9310008020000000000020030
:103A800000000000000000005C3A00080200000096
:103A90003B3000085D3000086B300008E519000875
:103AA0004D320008AB300008CD300008F930000876
:103AB000173100083531000855310008733100080E
:103AC00049310008913100086D180008C518000838
:103AD0009D310008C1310008C53100087834000864
:103AE000E8340008F0340008F0340008F03400082E
:103AF000F5FFFFFF0010000000304750494F440021
:103B00004F6820666F6F6B00286E696C2900464C09
:103B10004153485F30005352414D5F3000696E742D
:103B20006572727570742D636F6E74726F6C6C65F4
:103B30007240343030313363303000060708090AF0
:103B4000171717171728282828282801FF2AFFFFEA
:103B50000203726363403430303233383030004710
:103B600050494F48004750494F47004750494F463A
:103B7000004750494F45004750494F43004750497F
:103B80004F42004750494F4100554152545F320067
:103B90007379735F636C6F636B000000000000005B
:103BA000000001020304060708096D61696E0076D2
:103BB000322E372E39392D313135352D6765636415
:103BC000376332336461613063002A2A2A20426FEE
:103BD0006F74696E67205A6570687972204F532040
:103BE0006275696C64202573202573202A2A2A0AAD
:043BF00000000000D1
:103BF400772B0008E92C00082915000899150008FE
:103C040000000000ED1500080000000000C20100E3
:103C14000000000000000000000000000024F40088
:083C24003000002030000020F8
:103C2C000000000000000000000000000000000088
:103C3C000000000000000000000000000000000078
:103C4C000000000000000000000000000000000068
:0400000508001229B4
:00000001FF
